S00E0000752D626F6F742E73726563C0
S315802000002A82AE849301000097E20A0083B202D945
S3158020001073905210731040109B021040D60293F2B8
S3158020002002FF168105433A0333856240EF50215AF9
S315802000302A84EF10804997E20A0083B222FF054383
S315802000402FA96208631F09002285EF50015923B02A
S31580200050910C23BC410A97E20A0083B2A2902FA07A
S31580200060020AA28197E20A0083B2C28F05432FA398
S31580200070620CE31E03FE05433313430083B3810CD6
S31580200080B3E3630023B4710C2FA0020A6314091012
S31580200090EFB0D2571305000017EF0A00033F8FDD1C
S315802000A0029F2A89AE89328A4A8197E20A0083B2E0
S315802000B062BEB30F5A40638F4209528397E30A0088
S315802000C083B3C3CC03BF0200A1022330E301210303
S315802000D0E3CA72FE17D30A000333C37E97E30A006E
S315802000E083B3C3ED630873067E93FE93033F830039
S315802000F00D4E631BCF01033E0300033F03017E9F0A
S315802001007E9E2330EE012DA897EE0A0083BE8EEBCD
S31580200110FE9E93520F02137FFF0F094E6312CF0369
S31580200120033E0300614FB382E203B38A5E008332CB
S31580200130030103BF8A00169F7E9F7E9E2330EE0199
S315802001406103E34573FA97E20A0083B222C5FE92E1
S315802001507390521097E20A0083B242C3FE9217E34D
S315802001600A000333239D7E936387620023B00200B7
S31580200170A102E3CD62FEEF100065EF10206597E2C5
S315802001800A0083B2229EB38EF2014E85D285130455
S30F802001900000828E73005010F5BF28
S30B8020019AFFFFFFFFFFFFBF
S315802001A0AA87054709456385E700F9173335F000A7
S315802001B0B7585253938848350148814573000000CB
S315802001C0828082807D557E150D0582807D557E15A7
S315802001D00D0582807D557E150D0582807D557E1587
S315802001E00D0582807D557E150D0582807D557E1577
S315802001F00D0582807D557E150D058280171700009E
S315802002000337C7F02A8631CFFD57FE17138527007F
S31580200210A1CD946191E6058A21E21385270082800B
S3158020022017180000033808EE9718000083B808EDE9
S31580200230BA8701466316C8007D557E1539058280AA
S31580200240886763EDA600986F32072A9763F8E600E1
S315802002509C6BBE96898E94E1014582800506C69761
S31580200260D1BF7D557E150D058280411122E006E4A1
S3158020027050452A8423280500AA850145EF00900C45
S3158020028008C8A26002644101828081476313F60018
S3158020029082803387F500834607003307F50085077C
S315802002A02300D700E5B717D70A000337277397E7C8
S315802002B00A0083B727A43CF797E70A0083B787838A
S315802002C01CEF3A8597E70A0083B7478A1CF371BFEC
S315802002D05D7126FC9304F0BF4EF452F0D60497D974
S315802002E00A0083B9A96F17EA0A00033AAABFA2E0D7
S315802002F04AF856EC5AE85EE462E086E42E8C17D4FF
S315802003000A000334A46597EA0A0083BAAA933309BC
S315802003109500138B8901930B8A00636F54010664C1
S31580200320A660E2744279A279027AE26A426BA26B73
S31580200330026C61616F10204983B701060860A69719
S315802003403E95630C0C00636665019387090863FEFE
S31580200350A706638CAB06630AAA061C64094713F6B4
S31580200360F70F630FE6028D476317F6041468CA9663
S31580200370630F0C0403370C0163E8E60083378C0196
S31580200380B207BA9763F5D7042A86976507009385BF
S3158020039065CA170500001305657FEF70D67435A0F2
S315802003A061478193B387E70217E70A00033787C13E
S315802003B0BA9794676DBF976507009385A5C717057C
S315802003C000001305257AEF7016726104B9B793057C
S315802003D0750414E193F505FC137505FCEF10203F99
S315802003E0EDB7411122E011483284814706E4EF00BF
S315802003F0A03401C4834704001CC0A260026441016A
S315802004008280914685AC2A880147BD48B307E8009B
S315802004103385E50083C70701034505006307170376
S315802004200507E385A7FE01451307080283550700C4
S3158020043011C5835706008D8F13B5170099C9835729
S31580200440060091C309060907D5B7898F13B517000A
S31580200450E1BF99C6836708003E972507619B98E28E
S3158020046009C59717000023B307CD828041119715C0
S315802004700000938525CC014506E4EFF03FD8A260A5
S315802004809717000023B407CA410182801DC54111F8
S3158020049022E0FD552A841305050206E4EF00405C20
S315802004A0930715000840A26002649B9717001B05DE
S315802004B075023D9D619941018280014582805D71F1
S315802004C04EF49719000083B9E9C6A2E026FC4AF8C3
S315802004D052F056ECE14786E45AE85EE462E0171A69
S315802004E00000130A2AC32328FA00B384F90083E77D
S315802004F009012A842E89B28ABE9919C1130B8501D6
S3158020050063E23405171600000326C6C18336090028
S3158020051013170602019325EC7D557E15090563F593
S31580200520E6007D557E1515052330E900A660066414
S31580200530E2744279A279027AE26A426BA26B026CF9
S31580200540616182802685EFF07FF4DC40931B050273
S3158020055093DB0B02B3F75701338C74016384570105
S31580200560E28479BF9717000083A7C7BB3D9D2328C8
S31580200570AA007DD48337090002150191E3E2A7FE04
S315802005805A855E86A685EFF05FD05E9BD1BFFD57EC
S31580200590FE1713855700E3E9E6F821369305840193
S315802005A00145EF00205A232AAA0061462285971505
S315802005B00000938525B6EFF05FCD171700000367FF
S315802005C067B6014595B75D71A2E026FC86E44AF8B8
S315802005D04EF452F056EC971400009384A4B59C6098
S315802005E003D70500328403E907013E9911EB19C62A
S315802005F0E1071CE263E4270123300400814405A837
S31580200600971A0000938A8AB22A8A03B50A00AE898D
S315802006100DC9B2862E86D285EFF0FFDE1DC111C4AC
S315802006201C6063E427012330040083B40A00A6609B
S3158020063006644279A279027AE26A2685E274616149
S3158020064082808460E10463F52403930A8100D68640
S315802006504E86D2852685EFF01FDBA26763E32701CE
S3158020066002E409C569D4A2671CE0D1B7A264E5F08B
S3158020067041F469B755CD5D7126FC86E4A2E04AF83F
S315802006804EF452F056ECAE84B5CD328925CE2A84EE
S31580200690B689930A8100033A04002685135A1A00E4
S315802006A0D285EF00E03B630F45055686A6854A85B1
S315802006B0EFF07FF101E583D70400A9E7A265B9CDE4
S315802006C093850502AE8703D7070089076DFF033A16
S315802006D004003386B74010E06366CA042685EFF0AF
S315802006E0DFBAA26541464A85B295EFF01FBA638F7D
S315802006F00902A267DC43B3F73701638937032330C6
S31580200700440151BF7D557E150905A6600664E274B5
S315802007104279A279027AE26A616182807D557E156C
S315802007203905E5B77D557E151505C5B70145F1BF58
S315802007307D557E150905828039714EEC06FC22F89E
S3158020074026F44AF052E856E45AE0AA8911ED7D55FE
S315802007507E150905E2704274A2740279E269426AC2
S31580200760A26A026B216182802E85F5D1B684E5D27C
S31580200770328BCE8501463A89BE8A428AEFF0BFE423
S315802007802A8449C163070A005C41B3F74701639B0A
S31580200790470763050B005C402320FB0063850A0026
S315802007A01C6423B0FA007D56970500009385054189
S315802007B04E85EF00E02811ED4274E270E269426ACC
S315802007C0A26A026BA6854A85A274027905462161B2
S315802007D0FDB18367040098609CE003660400FD57A2
S315802007E0FE1713855700E367C7F6E30209F69305DC
S315802007F0040283D705008905EDFF4A85EFF0FFA81F
S31580200800014589BF7D557E153905A9B73DC541115D
S3158020081022E006E4171400001304C4911C60171705
S3158020082000000337A790944B1396060201923E96BA
S315802008306366A70017170000233A078E93050502E3
S3158020084003D7050089056DFF036705001D07BA9547
S31580200850E1993307B540359F0D8E98CBEFF0FFA2F7
S31580200860006001451048930584012136EF00802DD4
S3158020087048C8A26002644101828082801971A6F4F0
S31580200880CAF0CEECD2E8D6E4DAE05EFC62F866F412
S315802008906AF06EEC86FCA2F8971C0000938C8C89FB
S315802008A003B40C003E89AE8B83670401FD55B68464
S315802008B0BA8A3E942A8BB28D42E4468DEF00401A46
S315802008C003B30C001B0C150013170C02135CF701E5
S315802008D0130A040233036940B3098A0126934E938F
S315802008E037070200636F67063B872401414618C09D
S315802008F03305C400DE852322B4012334A401EFF01E
S31580200900DF986286DA855285EFF03F982686D685EF
S315802009104E85EFF09F97A265338599004A86EFF042
S31580200920DF960366040083B40C0001451D064E96AF
S31580200930619A059E90C8938584012136EF00802098
S31580200940C8C80145E6704674A6740679E669466A83
S31580200950A66A066BE27B427CA27C027DE26D0961FF
S3158020096082807D557E152505F1BF9707000083B7C8
S31580200970677C0145944BB7070200139706020193C3
S31580200980130707026377F700959F82178193138554
S3158020099007FE82807D557E150D058280014869BBC4
S315802009A08146C9B9BDC90111FD5726E4FE1706EC5B
S315802009B022E82A87B2841385270039CA3684A9CAB1
S315802009C021CBFD57FE179376070113853700A9E2C1
S315802009D09376F70F95CEFD57FE170546138527008C
S315802009E06388C6029376670011466383C6029306A0
S315802009F0F00F63EFE600B7070200A1179CE1EFF046
S31580200A00DFF6B707020088E0938787FC1CE0014564
S31580200A10E2604264A264056182807D557E15090567
S31580200A2082801377450009C79377050B91E79DBF91
S31580200A307D557E15090582807D557E150D05828022
S31580200A402A8719E2014582808356070083D70500CD
S31580200A503B85F6406DF9E5DA7D1609078905D5B718
S31580200A602A8701456308B50093171500BA9783D75F
S31580200A70070091E382800505F5B793F735009DC77A
S31580200A8015C6170700001307E71483C705007D36B0
S31580200A908505A98F93F7F70F8A07BA979C431B552D
S31580200AA085003D8D01C693F73500E5F31387C5FF95
S31580200AB0137836001B562600BA88B28517030000A5
S31580200AC01303431195E9630808020A0632970D0736
S31580200AD09706000093860610834717007D38050702
S31580200AE0A98F93F7F70F8A07B6979C431B558500E6
S31580200AF03D8DE31308FE828083A648009108FD354C
S31580200B00A98E93F7F60F8A079A979C439BD68600E1
S31580200B10B58F93F6F70F8A069A9694429BD78700CD
S31580200B20BD8E93F7F60F8A079A979C439BD68600AD
S31580200B30B58F93F6F70F8A069A9688429BD78700B9
S31580200B403D8D49B741111345F5FF06E4EFF0FFF2DD
S31580200B50A2601345F5FF0125410182800000000037
S31580200B6025733A20556E6B6E6F776E2072656C6F2B
S31580200B70636174696F6E207479706520256C6C78DA
S31580200B800A0000000000000025733A2052656C6F31
S31580200B90636174696F6E206174202570206973206B
S31580200BA06F7574206F662072616E67652028256C4C
S31580200BB078290A0000000000560061007200540067
S31580200BC06F00460069006C00650000000000000090
S31580200BD000000000963007772C610EEEBA510999F5
S31580200BE019C46D078FF46A7035A563E9A395649E51
S31580200BF03288DB0EA4B8DC791EE9D5E088D9D29775
S31580200C002B4CB609BD7CB17E072DB8E7911DBF90D0
S31580200C106410B71DF220B06A4871B9F3DE41BE84F4
S31580200C207DD4DA1AEBE4DD6D51B5D4F4C785D38350
S31580200C3056986C13C0A86B647AF962FDECC9658AF4
S31580200C404F5C0114D96C0663633D0FFAF50D088D50
S31580200C50C8206E3B5E10694CE44160D5727167A2F4
S31580200C60D1E4033C47D4044BFD850DD26BB50AA550
S31580200C70FAA8B5356C98B242D6C9BBDB40F9BCAC74
S31580200C80E36CD832755CDF45CF0DD6DC593DD1ABD0
S31580200C90AC30D9263A00DE518051D7C81661D0BFF4
S31580200CA0B5F4B42123C4B3569995BACF0FA5BDB850
S31580200CB09EB802280888055FB2D90CC624E90BB1F4
S31580200CC0877C6F2F114C6858AB1D61C13D2D66B650
S31580200CD09041DC760671DB01BC20D2982A10D5EFB4
S31580200CE08985B1711FB5B606A5E4BF9F33D4B8E810
S31580200CF0A2C9077834F9000F8EA8099618980EE1B4
S31580200D00BB0D6A7F2D3D6D08976C6491015C63E60F
S31580200D10F4516B6B62616C1CD83065854E0062F233
S31580200D20ED95066C7BA5011BC1F4088257C40FF58F
S31580200D30C6D9B06550E9B712EAB8BE8B7C88B9FCB3
S31580200D40DF1DDD62492DDA15F37CD38C654CD4FB0F
S31580200D505861B24DCE51B53A7400BCA3E230BBD4B3
S31580200D6041A5DF4AD795D83D6DC4D1A4FBF4D6D30F
S31580200D706AE96943FCD96E34468867ADD0B860DAB3
S31580200D80732D0444E51D03335F4C0AAAC97C0DDD0F
S31580200D903C710550AA41022710100BBE86200CC933
S31580200DA025B56857B3856F2009D466B99FE461CE8F
S31580200DB00EF9DE5E98C9D9292298D0B0B4A8D7C7B3
S31580200DC0173DB359810DB42E3B5CBDB7AD6CBAC00F
S31580200DD02083B8EDB6B3BF9A0CE2B6039AD2B1742B
S31580200DE03947D5EAAF77D29D1526DB048316DC7387
S31580200DF0120B63E3843B64943E6A6D0DA85A6A7A2B
S31580200E000BCF0EE49DFF099327AE000AB19E077D86
S31580200E1044930FF0D2A3088768F2011EFEC20669AA
S31580200E205D5762F7CB67658071366C19E7066B6E06
S31580200E30761BD4FEE02BD3895A7ADA10CC4ADD672A
S31580200E406FDFB9F9F9EFBE8E43BEB717D58EB06086
S31580200E50E8A3D6D67E93D1A1C4C2D83852F2DF4F2A
S31580200E60F167BBD16757BCA6DD06B53F4B36B24886
S31580200E70DA2B0DD84C1B0AAFF64A0336607A04412A
S31580200E80C3EF60DF55DF67A8EF8E6E3179BE694686
S31580200E908CB361CB1A8366BCA0D26F2536E26852AA
S31580200EA095770CCC03470BBBB91602222F26055506
S31580200EB0BE3BBAC5280BBDB2925AB42B046AB35C2A
S31580200EC0A7FFD7C231CFD0B58B9ED92C1DAEDE5B86
S31580200ED0B0C2649B26F263EC9CA36A750A936D026A
S31580200EE0A906099C3F360EEB8567077213570005C6
S31580200EF0824ABF95147AB8E2AE2BB17B381BB60CEA
S31580200F009B8ED2920DBED5E5B7EFDC7C21DFDB0B45
S31580200F10D4D2D38642E2D4F1F8B3DD686E83DA1F69
S31580200F20CD16BE815B26B9F6E177B06F7747B718C5
S31580200F30E65A0888706A0FFFCA3B06665C0B011169
S31580200F40FF9E658F69AE62F8D3FF6B6145CF6C16C5
S31580200F5078E20AA0EED20DD75483044EC2B3033969
S31580200F60612667A7F71660D04D476949DB776E3EC5
S31580200F704A6AD1AEDC5AD6D9660BDF40F03BD837E9
S31580200F8053AEBCA9C59EBBDE7FCFB247E9FFB53045
S31580200F901CF2BDBD8AC2BACA3093B353A6A3B42469
S31580200FA00536D0BA9306D7CD2957DE54BF67D923C5
S31580200FB02E7A66B3B84A61C4021B685D942B6F2A69
S31580200FC037BE0BB4A18E0CC31BDF055A8DEF022DC5
S31580200FD049424920535953546E000200780000003C
S31580200FE00000000000000000481020800000000063
S31580200FF00004252000000000000000000000000002
S31580201000000000000000000000000000000000003A
S31580201010000000000000000000000000000000002A
S3158020102000000000000000007010208000000000FA
S31580201030000000000000000000000000000000000A
S3158020104000000000000000004400610073002000C2
S3158020105055002D0042006F006F00740000000000D4
S3158020106060102080000000006010208000000000BA
S3158020107052554E54534552566E0002008800000049
S3158020108000000000000000004E7624800000000052
S315802010903676248000000000D401208000000000E5
S315802010A0D4012080000000006477248000000000A6
S315802010B0FC01208000000000F67D248000000000D6
S315802010C07A7E248000000000367E24800000000086
S315802010D0D401208000000000CC7524800000000010
S315802010E0DC01208000000000E40120800000000058
S315802010F0A47E248000000000000000000000000084
S315802011000000000000000000000000000000000039
S3158020111000000000000000005562456669566101A6
S315802011200000000000000000000000000000000019
S30D80201130000000000000000011
S30D80201138FFFFFFFFFFFFFFFF11
S3158020114001458280295582806F00537C5D71A2E0A3
S3158020115017D40A00033404DA26FC4AF84EF452F0F7
S3158020116056EC86E42A8A81442289B389A540930A4B
S3158020117020050C642E852EE4EF505614A2656395C7
S31580201180A90A4E865285EF50667F59ED13040003D7
S31580201190338484024A941C74B9CB9765090093855D
S315802011A0E5C42285829721E51440FD576380F602A7
S315802011B09BD7564017670900130747C38A07BA97F4
S315802011C005473B17D7009443558F98C313070003D1
S315802011D03387E40201467D5517680900130808C144
S315802011E085484A970C539B07060063EBB700A66099
S315802011F00664E2744279A279027AE26A6161828027
S315802012001C6F93162600B6979C43638DA7009BD6AA
S3158020121057408A06C29603A30600BB97F800B3E719
S3158020122067009CC20506C1B7852413040403E39294
S3158020123054F575BF014582809767090083C7A7BB90
S315802012400145858B91E3295582809767090083C75D
S3158020125087BA2955858B89CB9767090083C707B9B4
S315802012600145A18B91E3295582801D712C087D45EE
S3158020127086ECA2E8A6E4CAE04EFC52F856F45AF070
S31580201280EF10D23EE26781EF3555E6604664A6646C
S315802012900669E279427AA27A027B25618280C86BCE
S315802012A0100897A507009385656BEF3042352A8411
S315802012B06350A0048144C267139734008504BA978B
S315802012C003B907004A85EF50667FB305A9004A8592
S315802012D0EFF0DFE79B870400E3CF87FC9767090061
S315802012E083C787B193F707056396071A014571BFB0
S315802012F0E26797A507009385E567C86BEF30221BC9
S3158020130041D5854A93997A0293044500130A70023F
S3158020131017D90A00033909A593891908130BF005F3
S3158020132083C70400C5DF1B87D7FA1377F70F93850A
S3158020133014006361EA02B396EA0033F63601631439
S31580201340061413080002131608024296F18EBDEA8F
S315802013506306070BCA9783C707008D8B638807129E
S3158020136083C714002E84CA9783C70700918B638115
S3158020137007122286834614000504B307D90083C743
S31580201380070013F7470075F713F717001B17570049
S31580201390359F1377F70F9306000781476313D7048A
S315802013A0034714004A9703470700118B1DCB13046C
S315802013B02600834714000504CA9783C70700918BAC
S315802013C0EDFB05A017A507001305C55B2EE4EF608E
S315802013D09671A2652E848347040099C3639E670114
S315802013E085470347040063136701050481E7268543
S315802013F0EFF0DFD5A2842DB70504F1BF83C7F4FFB4
S315802014006383670903C7140093075007631DF70694
S3158020141013842400F1B74A970347070005041D8BE0
S3158020142013371700D98F0347040019C3E31567FFC5
S31580201430A285C5FB0347F4FF4A9703470700118B14
S315802014404DD3A286B68503C6F6FFFD163307C9009F
S31580201450034707001375470075F5058B1B17570043
S31580201460319F1377F70F13060007E31CC7F603C7D0
S31580201470F6FF4A9703470700118B25D7B68503C702
S31580201480F6FFFD16FDB781472E8471BF2E8489BF56
S31580201490814781BF996773A0071073503000B9B513
S315802014A017650900032545948280411106E403B51A
S315802014B0011017A607001306E6518146B285EF1064
S315802014C0E23EA2600145410182808280411106E48C
S315802014D0EF00E06EEF000030A2600145410182807E
S315802014E00000000000000000000000000000000056
S315802014F00000000000000000000000000000000046
S31580201500117106E40AE80EEC12F016F41AF81EFCA5
S31580201510A2E0A6E4AAE8AEECB2F0B6F4BAF8BEFC35
S3158020152042E146E54AE94EED52F156F55AF95EFD1D
S31580201530E2E1E6E5EAE9EEEDF2F1F6F5FAF9FEFD0D
S3158020154073252014F3251014732630148A86EF0011
S31580201550806773101514A260E2610272A2724273D0
S31580201560E2730664A6644665E6650676A6764677C1
S31580201570E6770A68AA684A69EA690A7AAA7A4A7B71
S31580201580EA7B0E6CAE6C4E6DEE6D0E7EAE7E4E7F21
S31580201590EE7F426111617300201000000000000080
S315802015A00000000000000000000000000000000095
S315802015B00000000000000000000000000000000085
S315802015C000006F20F61B6F205622411106E48337D8
S315802015D0851081CFEF30C07011CD17A50700130578
S315802015E0E567EF605650EF40A60F17A50700130555
S315802015F0E568C5BFA260410182808280011122E810
S3158020160026E406EC4AE093F405200339850E2A84E5
S3158020161097A507009385856989E497E508009385D2
S31580201620E5C317A507001305E569EF60D64B17C3F9
S315802016300A00033323440293EF10424EEFF01FE952
S3158020164099EC8337841081CF833504104264E2601D
S31580201650A26403B5810BCA87026905618287E2602D
S315802016604264A264026905618280797122F02A84AB
S3158020167026EC06F49374040C887185E8937704101D
S3158020168089CBEFF09FF4A27002742685E2644561CF
S31580201690828093770460A28591E72AE4EFF0FFF2B7
S315802016A02265A285EFF09FF5F9BFFD54E9BF75BF8E
S315802016B0411106E4185DB757430593872735630C98
S315802016C0F70017A507001305E561EFA001772955D7
S315802016D0A260410182801C6991E717A50700130546
S315802016E06562E5B71CE203B7810581EA636CE50094
S315802016F083B70103BA976377F5001C65BA979CE197
S315802017000145F9B788E1EDBF797122F026EC06F420
S31580201710AE842A8432E4EFF07FDBA2870274A2654E
S31580201720A2702685E26445618287330505000F20F5
S3158020173025008280330505000F200500828079717F
S315802017404AE817890D000329E9E306F422F026ECFE
S315802017504EE4630B0900B30920413384A540B3F9D5
S31580201760A900814463E98400A2700274E26442691C
S31580201770A2694561828033859900EFF01FFBCA9468
S31580201780D5B779714AE817890D000329A9DF06F4B0
S3158020179022F026EC4EE4630B0900B3092041338402
S315802017A0A540B3F9A900814463E98400A27002743C
S315802017B0E2644269A2694561828033859900EFF0AF
S315802017C07FF7CA94D5B70F1000008280828085BFAC
S315802017D0DDBF45BF411106E4EFF0FFFEA26017C3CF
S315802017E00A000333A34841010283011122E806EC53
S315802017F0AA9517D30A000333E3842A842EE402931E
S3158020180022854264A265E26017C30A000333033C43
S31580201810056102838280828001458280411106E4AF
S31580201820EFF01FC8A26097870D0023ADA7D4410192
S3158020183082802A832E8E41113285B6853A86BE864F
S315802018404287C68772889A88730000004101828009
S3158020185001118148014881470147814601468145DA
S31580201860414506ECEFF0FFFC11E199E1930540DF5D
S31580201870E2602E8505618280011181478148014879
S315802018800147814601468545414506ECEFF07FFAC2
S31580201890930740DF01E599C19B870500E2603E857D
S315802018A005618280011122E881482A840148814786
S315802018B00147814601468945414506ECEFF07FF791
S315802018C009E911E40145E2604264056182800CE009
S315802018D0D5BF130540DFC5BF01112A86814801483F
S315802018E08147014781468D45414506ECEFF07FF4DF
S315802018F009E9130540DF99C11B850500E260056172
S315802019008280130540DFDDBF011122E881482A84C9
S31580201910014881470147814601469145414506EC6C
S31580201920EFF03FF109E911E40145E2604264056187
S3158020193082800CE0D5BF130540DFC5BF011122E8A8
S3158020194081482A8401488147014781460146954539
S31580201950414506ECEFF0FFED09E911E40145E2602F
S315802019604264056182800CE0D5BF130540DFC5BF88
S31580201970011122E881482A8401488147014781460E
S3158020198001469945414506ECEFF0BFEA09E911E4A5
S315802019900145E2604264056182800CE0D5BF130573
S315802019A040DFC5BF2A8637555253AE8681480148C7
S315802019B081470147814513054535A5BD2A8637458B
S315802019C04244011181480148814701478146894522
S315802019D01305E53406ECEFF0DFE5E26001250561CD
S315802019E08280797122F026EC4AE84EE406F403B729
S315802019F0810DAA842E89B289368419C728FB03B51E
S31580201A00810D8545EF00C027BD4763E1971A8E0477
S31580201A109767090093878735A6978C6317A5070054
S31580201A201305C530EF60360C1064CE86CA8517A59F
S31580201A3007001305A533EF60160B6382010203B7F7
S31580201A400104058B09CF83B58107106417A507008C
S31580201A50130545340D8EB305B940EF60D608147052
S31580201A60106C0C6817A50700130545359374E9FF9C
S31580201A70EF607607147C10780C7417A50700130581
S31580201A806536938904FFEF601606346830642C60CF
S31580201A9017A5070013058537EF60F6043474307078
S31580201AA02C6C17A507001305E538EF60D603546024
S31580201AB0307C2C7817A507001305453AEF60B602CF
S31580201AC0546C50684C6417A507001305A53BEF603E
S31580201AD09601547850744C7017A507001305053D60
S31580201AE0EF607600746470604C7C17A50700130540
S31580201AF0653EEF60467F7470706C6C6817A5070032
S31580201B001305C53FEF60267E747C70786C7417A5AC
S31580201B10070013052541EF60067D03D4040017A531
S31580201B2007001305A542EF60067C0D8875141334D3
S31580201B301400050483D5090017A5070013058541E0
S31580201B408909EF60467AE39734FF17A507001305C6
S31580201B50E540EF604679854783D50400173608002F
S31580201B601306C6FD6316F40017B6080013068645CD
S31580201B7017A507001305053FEF60E6768947631EA4
S31580201B80F40083D5240017B608001306A64317A5AC
S31580201B9007001305253DEF6006754A85EF40144BF7
S31580201BA0176508001305057DEF50B627A68517A56E
S31580201BB007001305A519BDB50145828082800145A0
S31580201BC0828082808280797122F02AEC32E836E423
S31580201BD006F42E84EFD053456265A266426663542E
S31580201BE0050493171500858325476383E702636E73
S31580201BF0F700ED578583E98F15476396E702014500
S31580201C0017C30A000333032A09A82D47639DE700DB
S31580201C10014517C30A000333E3D90293A2702285B4
S31580201C20027445618280A285EFF0BFDB0000000050
S31580201C3000E104E523382501233C35012330450383
S31580201C402334550323386503233C750323308505C8
S31580201C50233495052338A505233CB5052330150661
S31580201C602334250601458280000000000000000004
S31580201C7000000000000000000000000000000000BE
S31580201C80006104650339050183398501033A05021C
S31580201C90833A8502033B0503833B8503033C050486
S31580201CA0833C8504033D0505833D850583300506F4
S31580201CB00331850613B515002E958280000000001D
S31580201CC0000035714AE12E8997A507009385054244
S31580201CD0CEFC06ED22E926E5D2F8D6F4DAF0DEEC63
S31580201CE0E2E8E6E4EAE0AA8902F002F402F802FCDD
S31580201CF0EF60B52B635205020144EA6022854A646F
S31580201D00AA640A69E679467AA67A067BE66B466CE9
S31580201D10A66C066D0D61828083274900B706FF0079
S31580201D202A8A1BD787011B968701598E1B97870086
S31580201D30758F598E4167130707F09BD78700F98FD8
S31580201D405D8E1B060640CA854A85EF70152C2A842F
S31580201D506359050017A507001305C53AEF60A658F5
S31580201D6069BFD2854E85EF50556BAA84130B8100AF
S31580201D70FD5B930A0102130C4100E3CF04F6014672
S31580201D80A6854E85EF60253B2A840148DA87014760
S31580201D9097A607009386863A2686D2854E85EF209B
S31580201DA0A60BAA8C6306750B13060002A2855685A0
S31580201DB0EF403645930500045685EF40B64E2A8D72
S31580201DC01DC1930500025685EF40F6572A84930558
S31580201DD000026A85EF403657099C930704043384B2
S31580201DE02700230004FEA26701480147FD1733859B
S31580201DF097012AECE28781461008D6854A8566E8CF
S31580201E00EF2086242A84635D0500F957630AF5004E
S31580201E10AA8517A507001305E532EF60C64CF1BDEC
S31580201E20814617A6070013066634A6854E85EF6081
S31580201E30257619CD92454A85EF60952EAA8501474C
S31580201E40814617A60700130666324A85EF70C57D40
S31580201E50A6854E85EF50755EAA8405B7AA8503B5FB
S31580201E60010C630FB500411106E4EFF09FE5AA87C8
S31580201E706353A0008147A2601B85070041018280B1
S31580201E8001458280411122E006E4EFF03FFD0144C6
S31580201E90635A05002A84AA8517A507001305852D70
S31580201EA0EF606644A2602285026441018280797156
S31580201EB026EC06F422F05C41B706FF00AA851BD7E4
S31580201EC087011B968701598E1B978700758F598EA0
S31580201ED041679BD78700130707F0F98F5D8E1B0616
S31580201EE00602AA84EF707512635F05002A8417A5FF
S31580201EF007001305252BEF60063FA270228502740A
S31580201F00E2644561828097A507009385252D2685E5
S31580201F10EF60B5092A846352050217A607001306C7
S31580201F20662C81452685EF7035052A846357050002
S31580201F3017A507001305852B7DBF83A7810B370641
S31580201F40FF00A2859BD687011B978701558F9B967D
S31580201F508700F18E558FC166938606F09BD78700C2
S31580201F60F58FD98F7400114717A607001306062A06
S31580201F7026853EC6EF70456B2A84E34005F803B577
S31580201F800101A685EFF0FFD31B040500E357A0F6D9
S31580201F900144A5B7411106E483B5810B17A5070037
S31580201FA01305C527EF80105283B5010C89C9A2601D
S31580201FB017A507001305852741016F80D051A260A0
S31580201FC04101828000000000000000000000000027
S31580201FD0AA8293360601F5E293867200E19A638A95
S31580201FE05600338756402380B2008502E3EDD2FE29
S31580201FF0198E93F5F50F93968500D58D93960501C9
S31580202000D58D93960502D58D137786FFB386E2000C
S315802020101377870F11CF3307E04013070710B3825A
S31580202020E24097C70A0083B7E7850583BA978287F8
S3158020203023B0B20023B4B20023B8B20023BCB200CE
S3158020204023B0B20223B4B20223B8B20223BCB202B6
S3158020205023B0B20423B4B20423B8B20423BCB2049E
S3158020206023B0B20623B4B20623B8B20623BCB20686
S3158020207023B0B20823B4B20823B8B20823BCB2086E
S3158020208023B0B20A23B4B20A23B8B20A23BCB20A56
S3158020209023B0B20C23B4B20C23B8B20C23BCB20C3E
S315802020A023B0B20E23B4B20E23B8B20E23BCB20E26
S315802020B093820210E3EED2F61D8A01CAB386C2004D
S315802020C02380B2008502E3EDD2FE828000000000EC
S315802020D0000000000000000000000000000000005A
S315802020E0B302B54063E3C20061A0AA823295B2955D
S315802020F0C146636BD602137685FF630AC500FD153C
S31580202100838705007D152300F500E31AC5FE93F627
S3158020211075009DE69D0263F8A200E1159C6161151C
S315802021201CE1E3ECA2FEE512630A5500FD158387C8
S3158020213005007D152300F500E31A55FE168582805D
S31580202140139E3600B30EC041E1999C619D02339760
S31580202150D701E1159C6133D6C701598E611510E1EF
S31580202160E3E7A2FEE512B695C1B7000000000000A5
S315802021706308B50CAA8FB302C500C1466367D60A29
S3158020218013067500619A630AC50083870500850555
S315802021902300F5000505E31AC5FE93F67500D5E202
S315802021A0938212F8637855069061946598699C6D40
S315802021B003B8050283B8850203B3050383B3850379
S315802021C003BE050483BE850403BF050510E114E51F
S315802021D018E91CED233005032334150323386502C3
S315802021E0233C75022330C5052334D5052338E505E0
S315802021F0B06DB471B875BC7903B885079385050829
S3158020220030ED34F138F53CF9233C050713050508F4
S31580202210E36C55F893828207637855009C61A1050B
S315802022201CE12105E36C55FE9D02630A55008387D8
S31580202230050085052300F5000505E31A55FE7E85F4
S315802022408280139E3600B30EC041E1999C61E512CF
S3158020225033D7C7019C65A1053396D701598E10E1E6
S315802022602105E36755FE9D02B695C1B700000000A3
S3158020227000000000411197A50700938525FC7D5518
S3158020228006E4EF205207A26005053335A000410100
S31580202290828001458280411106E4EF300302EFA05F
S315802022A0A276A26001454101828083B7010C1CE1A0
S315802022B001458280B28736862A88BA9663E1C5022E
S315802022C063F5D5024111C28517A50700130505F8C8
S315802022D006E4EF604601A260395541018280E363BE
S315802022E0F6FE0145E3F0D7FE82800145E37EF6FEC9
S315802022F0E3FAF6FC8280797122F017C40A0003344F
S31580202300E49926EC4AE84EE452E0AA89328A2E8560
S31580202310B6843A899306040F1307840F6946A285EB
S3158020232006F4EF20005601C917A50700130585F589
S31580202330EF90B13081A06C7885E5930784101307E0
S31580202340041097C60A0083B666956946D2854E855F
S31580202350EF50D04A0DC917A507001305A5F5C9BFAB
S31580202360707C4A87A68617A50700130525F4EFF00B
S315802023707FF461D50545A2700274E2644269A26940
S31580202380026A45618280833504109DE103350410FD
S31580202390EFB0706717C50A0003354590EF2090038C
S315802023A079D917A507001305E5F3EF50D673D9B76A
S315802023B0033684104A87A68617A50700130505F2DB
S315802023C0EFF05FEF45F9D9B7411106E4EFF02FFF23
S315802023D0A26041018280014582803571CEFCD2F88F
S315802023E006ED22E926E54AE1D6F4DAF0DEECE2E8EB
S315802023F0E6E4EAE004712A8AAE8983A7C413CD8FE6
S3158020240023AEF41293F715008DCB13060014814565
S3158020241017C50A0003358588EFF09FBB17A50700EF
S315802024201305C5EEEF50B37797C70A0083B70787A2
S31580202430054723ACA71223AEE7129397490363D8A7
S31580202440070003350A0001C58145EF50567D93F775
S3158020245029006386073603350A001418930A8103F8
S315802024605686B68536E817C40A0003342483033B90
S315802024708A0202F802FCEF2000352A892338040CD0
S315802024802334040CEF20A03A0547AA876307E50288
S315802024900947C266630BE516DA8517A5070013057B
S315802024A065E7EF505664930550FA17A50700130584
S315802024B0E5F4EF505663054411A1CA8517A5070098
S315802024C01305C5E7EF503662832709003706FF00DC
S315802024D017A50700130505EA9BD687011B97870159
S315802024E0558F9B968700F18E558FC1669BD7870027
S315802024F0938606F0F58FD98F37270527130767959B
S31580202500639CE7004A85832B8413EF10703609E994
S3158020251017A50700130585E7EF903112A95571B7E6
S315802025204A85EF10906B63890B0217A50700130568
S3158020253065E7EF9091104A85EF10503901E917A58C
S315802025400700130525E8EF50165AC9BF17A50700BF
S31580202550130545E8EF90710E8345D901E9476389D4
S31580202560F50017A50700130565E7EF50D6577DB709
S31580202570E30609FA8347E90111476387E704636322
S31580202580F70405476385E7000947E397E7F0930754
S3158020259009047CE40327C9003706FF009B56870180
S315802025A09B178701D58F9B168700F18ED58FC166A5
S315802025B01B578700938606F0758FD98F8217819354
S315802025C07CE819A83947D1B79306040D1306840CE5
S315802025D081454A85EF10D03713060004CA85130536
S315802025E08400EFF0FFAF8547233024013CE44A8501
S315802025F0EF20E02385476305F5048947630AF50EB6
S3158020260017A50700130585EAFDA81307040D3AE4EC
S315802026101307840C3AE0814813084006694756869A
S31580202620CA852285EF70C011634A0500E277233C74
S31580202630240528D43CF0C2773CE855BFF955B5B57A
S315802026408347E901B705FF00A300F40E8347F9010C
S315802026502300F40E8347C9012301F40E0327C90002
S315802026609B5687019B178701D58F9B168700ED8EFA
S31580202670D58FC166938606F01B578700758FD98FB5
S315802026809B87070482178193CA977CE003270901D9
S315802026901B5687019B178701D18F1B1687006D8E4E
S315802026A01B578700D18F758FD98F821781937CECAA
S315802026B08347D901A301F40E8347340E0D476385E2
S315802026C0E70061476398E70AD6861306840E8D4510
S315802026D017B50A000335855CEF20804F6355050CBE
S315802026E0F9576302F50C17A507001305A5DE21A867
S315802026F02C54286C1306140EEF50707901C917A537
S315802027000700130525D2EF90417375B32C54286C9E
S315802027101306040EEF50107B11C517A5070013056D
S31580202720E5D1D5B72C54286C1306240EEF50706F44
S3158020273011C517A50700130565D2F1B72C54286C4F
S315802027401306340EEF50507111C517A507001305D7
S3158020275065D255BF286CEF60902368E02C54286C96
S315802027601306840DEF50307C21D917A50700130559
S31580202770E5D151BF3C6463820716584C3706FF006B
S315802027809B5687019B178701D58F9B168700F18ED5
S31580202790D58FC1661B578700938606F0758FD98F94
S315802027A0821781937CF40347140EB9476317F70089
S315802027B078647C7478ECBA977CF4233C240B93F76A
S315802027C04900B1CF03350A00630D05128145EF50CC
S315802027D0164517B70A000337674C8346170EB94745
S315802027E063EFD7029167D107B3D7D700858B85CB87
S315802027F00347270EF14763E4E702B7470014938720
S315802028000702B3D7E700858B99CB03360A01833538
S315802028108A0001478146EFF01FAE2A8445E193F76F
S315802028208900014963820716EFF01FBA83C6140E0A
S3158020283083BA840DB94703BC840B83BC040C83BB49
S31580202840840C03B8040D03CB040E2A89568463991D
S31580202850F60263070B0237071000931728007D17AF
S31580202860BA973705F0FFB70520007D8D36EC42E814
S31580202870EF3086542A84630F052A4268E266E8F49C
S315802028803C103EE0A285B7080004DE8722875E865C
S315802028905A85EF10D021A275338D85404DC52AE803
S315802028A05A85EF10303242669307A0FDAA856310C1
S315802028B0F60663040900EFF06FB07554EA6022854E
S315802028C04A64AA640A69E679467AA67A067BE66B22
S315802028D0466CA66C066D0D6182803C7091CF2C541F
S315802028E0286C1306840EEF50F064E30E05EA17A5D4
S315802028F00700130525C101BD17A50700130505C3CC
S3158020290019B597B70A0083B7E7708863D9B5B70733
S3158020291000046363FD0217A507001305A5C3EF50C6
S31580202920961C17A507001305E5C7EF50D61B630332
S31580202930091AEFF0AFA879AA17A50700130585C451
S31580202940EF50761AF9BF9385F50313F50AFC93F5B4
S3158020295005FC23B8A40D898DEFE03FE963140B00B5
S3158020296063898B0A6377940BA2776374FC0ABC64B1
S31580202970D1CB03C7640291476318F70017A50700D8
S31580202980130545C4EF90614B93F709018DCFE87805
S31580202990EC7C9386841113860411898DEF20E015B3
S315802029A02A84E31D05F083B5041117A507001305B6
S315802029B065CFEF50B30383B5841117A507001305A0
S315802029C065CFEF50B30293F70902D5EB03C5240EEA
S315802029D0EF002050AA8A71E113F4097C630D041458
S315802029E063040900EFF08F9D03C5240EEF10700855
S315802029F003C6240EAA8517A507001305A5CCEF507C
S31580202A00960E55BC17A507001305C5BFEF90E1426A
S31580202A1039BFFC7037F7FF0F1207F98F3707051676
S31580202A206398E7040C18814630182285EFE05FC84A
S31580202A30AA8501C917A50700130545C1EF50B60A17
S31580202A40FDB542766300C402E276A28517A507000B
S31580202A50130545C2B296EF50160962764275A28555
S31580202A60EFF00FE84277F8F4D8FCE277BA97FCE0EB
S31580202A70E86CA2750146898DEF30E61A31B703B529
S31580202A800410EF5080339385841013850410EF5003
S31580202A90A03F2A84E31405E215BF93F70904A9E72A
S31580202AA093F70908A5E393F70910A5E713F40940DE
S31580202AB059C05686D28513050040EF00803C2A8473
S31580202AC063040900EFF08F8FF557E308F4DEFD5796
S31580202AD0E316F4DE17A507001305C5C5EF50B6002B
S31580202AE0EF20E22A7D54D9BBD28513050004829A31
S31580202AF02A845DD5A28517A507001305A5C1EF50A9
S31580202B00867E6DBBD28513050008829A2A847DF144
S31580202B1059BF03C7240E95470D456303F70001452A
S31580202B20EFF07F8BAA8509CD17A50700130585BCF5
S31580202B30EF50667B0544E30309D8EFF02F88BDBBB1
S31580202B40D28513050010829A2A844DF585B785672C
S31580202B50938707710CF5B365F6006FF01F880566BD
S31580202B601306F68097A50700938545BECDB74111FC
S31580202B7013060004814522E006E42A84EFF04FC53F
S31580202B808547230CF40097B70A0083B727111CF0DA
S31580202B90A260026441018280828093070040631F85
S31580202BA0F500411106E49C7181460146E877894506
S31580202BB0EF602619A2600545410182800145828009
S31580202BC0930700406318F5029C71B86715C74111B9
S31580202BD006E422E0E07717A507001305A5B7A285AE
S31580202BE0EF50667003B501000294A2600264054529
S31580202BF0410182800145828005458280930700407D
S31580202C006312F504011106EC22E826E480718547DB
S31580202C1017A50700130505B86474A300F40EA685CE
S31580202C20EF50666C833784106C68014699C30336EF
S31580202C3004102685EFC00355E2604264A264012514
S31580202C400561828001458280797122F026EC4AE8EE
S31580202C504EE452E006F42A84AE89368AB28401494B
S31580202C60634A3901A2700274E2644269A269026AE7
S31580202C7045618280630509002300440105048C6038
S31580202C8022850529EF30D6568860A104EF30166359
S31580202C902A94F9B793070040631BF506011122E8B1
S31580202CA006EC26E44AE003B905022E84833789049C
S31580202CB085CF17A50700130565B1EF50E35719C9CE
S31580202CC08145EF50C6750C58AA8495C5107CA946B7
S31580202CD0EFF09FF70334890E17A50700130505B17A
S31580202CE0A285EF5046600294E2604264A264026943
S31580202CF005450561828017A50700130525AEEF508F
S31580202D00A353AA8561D92685EF30964EE1B7014532
S31580202D108280011122E806EC26E484712E84EF500D
S31580202D20436C11EDEC6817A50700130525B0EF500D
S31580202D30E34BE2604264A264014505618280FC74B3
S31580202D400C7C08588297F5B793070040631CF504DE
S31580202D50397126F406FC22F89C71AE84B8670DCFB3
S31580202D60F077000897A50700938545AD2285EF501B
S31580202D70C6519C7C9C6322E43EE0EFE0FFA92A8436
S31580202D8019C1EFE05FA98A86094681450145EFA0F2
S31580202D90B06419C0EFE01FA8E2704274A2740545A2
S31580202DA02161828001458280930700406317F50C5C
S31580202DB0397126F406FC22F84AF04EEC52E803B923
S31580202DC00502AE8483378904C9CF034769029147B8
S31580202DD06303F702014A9C58634EF00817A5070043
S31580202DE01305C59FEF5043452A8431E917C408004F
S31580202DF01304C446A9A0033A090034000A868545EF
S31580202E005285EF10E034A267F1D7F1B79C7C1397F7
S31580202E1039000504BA9788638509EF30364A2A94A3
S31580202E2098589B870900E3C3E7FE2285EF90F10D32
S31580202E30907C8C58930600022A84EFF0FFE083343E
S31580202E40890E17A507001305E59FA685EF50A6498D
S31580202E5003B50100A28617C6080013062640D28530
S31580202E608294E2704274A2740279E269426A0545CC
S31580202E70216182808149014465B7014582808280B3
S31580202E808280011106EC22E826E44AE017B30A0084
S31580202E900333C3D6AE842A843289029317B30A00B9
S31580202EA0033343B20293A685228502999C700145FD
S31580202EB003C7170E85476308F700130504E03335EB
S31580202EC0A0003B05A040E2604264A26402690561DD
S31580202ED082800E0597570900938747F1AA978863C2
S31580202EE08280A9461C6103C7070019C36313D700D4
S31580202EF0828085071CE1FDB71069AA8511E21065DD
S31580202F0017A50700130505996F50E63D130101D9D2
S31580202F1023308126233C91242338212523304125A3
S31580202F20233C51232338612323341126233431250E
S31580202F303A8A03C705009307F0022A842E89328BAA
S31580202F40B68A24106310F70683478501A1CF230410
S31580202F5001024A85EF309636AA892685EF301636C5
S31580202F60AA999307002063F637054A86A68517A572
S31580202F7007001305A592EF5006371305C0FD833051
S31580202F80812603340126833481250339012583391B
S31580202F908124033A0124833A8123033B01231301AD
S31580202FA0012782800C70130600202685EF30762537
S31580202FB04DB7CA852685EF309626A68517A50700A4
S31580202FC01305C58FEF502632130901015A8697A51E
S31580202FD007009385A5864A85EF50262B1C643800EA
S31580202FE0D6864A86A68522858297E34A05F8631483
S31580202FF00A00054569B7A2672330FA00DDBF39711B
S3158020300022F82A84328526F44AF04EEC06FCAE84D9
S315802030103689BA89EF5043331DC53000C145EF50FC
S31580203020C640AA87295563C9070022664E87CA8665
S31580203030A6852285EFF09FEDE2704274A274027914
S31580203040E269216182807955C5BF411106E422E07B
S315802030502A840865EF902150086CEF90C14F087044
S31580203060EF90614F0874EF90014F0878EF90A14E52
S31580203070087CEF90414E2860EF90E14D2864EF90D8
S31580203080814D2868EF90214D22850264A2604101FE
S315802030906F90614C397126F44AF006FC22F84EEC8A
S315802030A052E856E4DD4700612A89AE849CC59306A2
S315802030B00002254783470400638CD702638AE70290
S315802030C013073002639AE7022947834704008DCB92
S315802030D06392E70223A40400050423308900E2706A
S315802030E04274A2740279E269426AA26A216182806C
S315802030F00504C9B70504D1BF2947E38DE7FC81E7DD
S3158020310089479CC4D1BF8947A2896308F60697B6AA
S315802031100A0083B626C51306000283C70900C9EFB5
S31580203120338A894013051A00EF90215E88E019CDF5
S31580203130814697B50A0083B5E5C29C606319DA0893
S31580203140D2972380070085479CC44E84175A09004E
S31580203150130ACAD88149D28A83350A00BDDD8860A0
S31580203160410AEF30361051E59209CE9A83A78A001C
S315802031709CC4A5B76386E700850983C70900FDFB44
S31580203180338A894013051A00EF90215888E0014739
S3158020319029D59C606319EA00D2972380070085474A
S315802031A09CC44E841DBFB306E40083C60600BA972E
S315802031B005072380D700F1BF3387F6000347070032
S315802031C01377070231FFE38DC7F48509B9B7330733
S315802031D0D400034607003387D7008506B387C5000A
S315802031E083C70700858B9B975700B19F2300F700E5
S315802031F0A9B7852995B7797122F026EC06F44AE895
S31580203200AE8409468A85033905002A84EFF09FE833
S31580203210224585476303F5020C604A861795070089
S315802032201305456BBB852541EF50E60B2955A270CA
S315802032300274E26442694561828082679CE0C5BFF0
S31580203240397122F826F44AF006FC4EEC2E8909467E
S315802032508A8583390500AA84EFF0DFE322448547F7
S315802032606304F4028C604E861795070013058568E3
S31580203270BB853541EF5026072955E2704274A274EA
S315802032800279E26921618280826429468145268588
S31580203290EF50261F2320A9002685EF90C12B22855B
S315802032A0E9BF01112AE4179507001305255806EC76
S315802032B0EF50830911C92266C145EF5006177D95C7
S315802032C02999E260056182807955E5BF011106EC76
S315802032D022E8D14763EEB7001795070013050563EB
S315802032E0EF5066009157E26042643E850561828098
S315802032F02A84EF80D619AA853000179507001305F2
S31580203300E562EF809656F95779DD8347B100834889
S31580203310D1000348C1000347A1008346910003469C
S315802033208100979507009385E5602285EF40F675A5
S31580203330854755BF497186F6A2F25AFAA6EECAEAA1
S31580203340CEE6D2E256FE5EF662F266EE6AEA6EE677
S31580203350130101812E84179707001307273F130631
S31580203360400481452A8B28113AE102E502E902EDE3
S3158020337002F182F082F482F882DC230E0106EFE0ED
S315802033803FC52285EFF05FB785477CCC3C50BDC7D3
S315802033907C5063C30704179507001305255EEF400D
S315802033A0B37AAA8415C9087819CD9305014F1306D7
S315802033B000402EECEF20C15EE265179507001305CD
S315802033C0E541EF40135D2685EF30466F9B0505006E
S315802033D001462685EFA0A17101451301017FB670B4
S315802033E01674F6645669B669166AF27A527BB27B8F
S315802033F0127CF26C526DB26D756182800C7091E98F
S315802034000C641795070013056558EF40D66D054562
S31580203410E9B70147894617960700130626595A8524
S31580203420EFF0FFBD635805000C6417950700130560
S31580203430E558E1BF1795070013054557EF40D35F41
S31580203440833B8402AA8963820B04EF302667AA8491
S315802034500874EF30A666BB85A40085252E852EECC4
S31580203460EF90A12AE265AA8B01E91795070013053B
S31580203470E557EF40566761BF1874CE8617960700CA
S315802034801306C66AEF40B65DDE890C7C6393051011
S31580203490033A840363160A103C4C858BB9C717956B
S315802034A007001305255BEF4033592AF4179507004B
S315802034B01305C55AEF4053582AF017950700130570
S315802034C0E55AEF4073572AEC179507001305055BDD
S315802034D0EF409356626782762276AA879795070071
S315802034E09385455A2811EF40565A3C4C898B8DC37B
S315802034F08410979507009385E5592685EF30464FAA
S31580203500D545A810EFF09FDC635405002300010603
S315802035103C4C04788D8B99E3638D04121309010F3B
S315802035201306004081454A85EFE09FAA89E497C427
S3158020353008009384A4D22685EF304658AA84281181
S31580203540EF30C657AA948810EF3046578504AA9440
S31580203550130600400C78637C960A89E597C5080097
S315802035609385C5CF2E85EF3066552AF02811EF300A
S31580203570E6542AEC8810EF30665462668275AA86F5
S3158020358013070040179507001305C551EF40B65520
S315802035909DA8086CEF30064DE31C05EE4E8AEDBDE6
S315802035A01307014F8D461796070013062646D285A8
S315802035B05A85EFF0DFA4635A05000C64179507003F
S315802035C01305C545EF4036523DA80337014F3A854E
S315802035D03AECEF407656AA850818EF306641179563
S315802035E007001305A542EF4033456267AA862A8ADB
S315802035F01796070013068645F1458800EF40364624
S31580203600ED47E3FBA7E85E85EF80F17409B581C5B8
S315802036104A85EF30063F2C114A85EF3046408C1084
S315802036204A85EF30C63F9305014F130600404A85F1
S315802036302EECEF20E136E265179507001305051A73
S31580203640EF403335E2651795070013052548EF408F
S3158020365096491795070013056548EF40F33D2C6082
S315802036602AEDBDC1086CEF30E63F39ED4EED4EE5D3
S31580203670094463050A009C003EE90D44EA6781EB14
S315802036801795070013058550EF40133B2AED4E858D
S31580203690EF108018EA679304018F2A896387071CB5
S315802036A04A679307018F6303071E11444A85EF10EB
S315802036B00018AA87140103350B0022868145638E64
S315802036C0071CEF70A00181B76A6755D3033D0404B8
S315802036D00149631E0D10386419E302ED49BF179521
S315802036E007001305A540EF403335AA8471E5179569
S315802036F0070013052540EF403334AA841795070029
S315802037001305C53FEF405333AA8A179C0700130C35
S31580203710EC2491E417CC0800130C4CB4E284979DDA
S315802037200700938D2D2463800A0A2864979C0700BE
S31580203730938CCC23EF3086389B070500286485C37D
S31580203740AA9703C7F7FF9307F00297CC0800938CBC
S31580203750ECB06306F700979C0700938CAC21EF3082
S31580203760E6352A896685EF3066353B09A9002685A8
S31580203770EF30C6342A8D6285EF3046342AEC568562
S31580203780EF30C633E26705293B09A9013B8927012A
S315802037902A8D6E85EF3086323B092D013B09A900A3
S315802037A04A85EF8091762A8D0DE5179507001305BA
S315802037B06535EF40563381BD97CD0800938D0DAA90
S315802037C0EE8A6E8C9DB797CA0800938A2AA9568C52
S315802037D0A9BF6EE03464CA85D6886288A687668744
S315802037E01796070013060634EF4076276A89014725
S315802037F0A146179607001306662EEA855A85EFF0AE
S315802038001F80AA844A85EF80115563D304023C60C9
S3158020381002ED99C70C64179507001305A5315DB392
S315802038202C6499C51795070013054533EF40B62BB1
S315802038303C54E38E07E2179507001305252AEF40AF
S31580203840B31F8145EF40B63D2A84EF303570E310B3
S3158020385005E2930500202285EF40E02EE359A0E083
S3158020386085452285EF30305F19B5EF00507C89473A
S31580203870630AF5001795070013054532EF40D31BE1
S3158020388023B4A47AEA67E38307E219BD1797070072
S315802038901307C70C23B0E77A09BDEF70D018A5B3FC
S315802038A0011138009306E00222E806EC3284EFF01C
S315802038B0EFE563480500A267054533868700230028
S315802038C00600E2604264056182805D71A2E026FC8A
S315802038D04AF84EF452F086E4328990612E84AA8486
S315802038E02C08228532E4B6893A8AEFF0DF90226668
S315802038F0635405020C60179507001305252B295460
S31580203900919DEF40561EA66022850664E274427918
S31580203910A279027A61618280E2654A8626852EE4D2
S31580203920EFF01FF8A2652A846359050017950700D2
S315802039301305C529EF40361BF9B70664A660528762
S31580203940CE86027AA2794A86CA8526854279E2740B
S31580203950616109A015712EF42EE886EDA2E9A6E50F
S31580203960CAE14EFD52F956F55AF15EED62E966E5F9
S315802039706AE1EEFC2AECC14563CEE5029C003EF06E
S315802039803C10B28A36893A8A3EE4D94C171B090004
S31580203990130B8B158275226505462274EFF08FEF07
S315802039A0A64763EFFC2E836781048A07DA979C43B8
S315802039B0DA978287179507001305C522EF40B6123E
S315802039C00554EE6022854E64AE640E69EA794A7AA1
S315802039D0AA7A0A7BEA6B4A6CAA6C0A6DE67D2D610F
S315802039E08280426505462322C902EF30260D2A842D
S315802039F0226505468C10A279EFF0CFE9A657394784
S31580203A006384E70251476383E7041147CA8563814C
S31580203A10E704A2754E86179507001305A51EBB855C
S31580203A203541EF40560C39A813064400A2656265DD
S31580203A30719A1B071A00CA865696EFF01FE92A84C8
S31580203A40E34105F82265EFF0CFC9A9B7930589012F
S31580203A502265EFF04FFAE5B7226593050902EFF06C
S31580203A602FFE2A84CDA213050008A279EF80F14982
S31580203A702A8445C5814513060008EFE06FD5226567
S31580203A8093058400EFF02FF763510502A2754E86C9
S31580203A901795070013058519BB853541EF40B60478
S31580203AA02285EFF08FDA295429BF0337090393073C
S31580203AB004072338F9029306890234F838FC1CE37C
S31580203AC0130D0105D54D971B0900938BAB072265F6
S31580203AD00546EA85A279EFF0EFDBE64763E4FD143D
S31580203AE0836781058A07DE979C43DE9782872265D6
S31580203AF005468C10A279EFF0EFD9A6571947638037
S31580203B00E70231476396E7028337890091EF08649D
S31580203B10EF3046082334A90001E951545DB522656A
S31580203B2093050401EFF02FED2265EFF08FBB45B7AB
S31580203B30A2754E86179507001305C50CBB853541A2
S31580203B40EF40667AD5B7226593050402EFF0AFEA97
S31580203B50E34B05F40870EF30E60308EC5DDD087072
S31580203B60979507009385850EEF30461AAA8925D129
S31580203B70EF30460208F455D12380090089BF22659B
S31580203B8093050403EFF02FE7187CAA841DEF0878AD
S31580203B90979507009385050CEF3046171DC5930929
S31580203BA07500930500024E85EF20D66F3B0C35417C
S31580203BB01B051C00EF80713508FC6286CE85EF20C0
S31580203BC05664187C629723000700E3D204F0E1BD97
S31580203BD01C7C93058403E39C07EE2265EFF0AFE11E
S31580203BE0AA84E5B73C6093050404E39207EEF5B713
S31580203BF03C6493058404E39C07ECC5B73C68E39852
S31580203C0007EC93050405D1BF85473CD09305440630
S31580203C102265EFF0EFE2E9B793058405D5BF8547A6
S31580203C203CD475B54EF4BDB322652C18EFF0AFDCCD
S31580203C30E2792A84638909000335890019C1EF80D6
S31580203C40911123343901E35704D4A5BB22652C185E
S31580203C50EFF06FDAE2792A84E38709FE03350901DA
S31580203C6019C1EF80510F23383901F1BF4265EF200A
S31580203C70F66413063500A2656265719A1B071A00E1
S31580203C80CA865696EFF07FC4E9BB22659305490222
S31580203C90EFF00FDBE35005D02265EFF08FA421B53E
S31580203CA0A275228617950700130545FB819D95BB36
S31580203CB0054401BB130101DC23349122AA84179584
S31580203CC007001305A5FB233C1122233881222330AC
S31580203CD021232E843289233C3121EF20365EAA8906
S31580203CE02285EF20B65D4E9593070020228663FBC2
S31580203CF0A70297950700938565F817950700130502
S31580203D00E5F8EF40465E1305C0FD833081230334FA
S31580203D1001238334812203390122833981211301AE
S31580203D2001248280200097950700938525F8228597
S31580203D30EF40A6554A86A2852685EFF07FB6F1B755
S31580203D40011106EC22E826E44AE02A840861130958
S31580203D508402EF8051000864EF80E17F0868EF805D
S31580203D60817F08740461631A250122854264E2609A
S31580203D70A264026905616F80017E130505F9EFF063
S31580203D80CFAC26858460C5B7011126E4AA841305A5
S31580203D9080034AE006EC22E82E89EF80111729C598
S31580203DA01306800381452A84EFE08FA2930784023D
S31580203DB01CF41CF84A86CA850547A2862685EFF01C
S31580203DC07FB983C714032A8999CB1C6895C7179511
S31580203DD007001305A5EEEF4006511C681CE46356C8
S31580203DE009002285EFF0DFF50144E26022854264F6
S31580203DF0A26402690561828017950700130505EE86
S31580203E00EF40664EE9BF5971A2F056FC86F4A6ECC7
S31580203E10CAE8CEE4D2E05AF85EF462F066EC6AE84C
S31580203E202E848C51AA8A2945A525BBC5A50250502A
S31580203E30086081480148814717F7FFFF1307070C61
S31580203E408146EF70413E630C0510AA8417950700C2
S31580203E50130545EBEF40433E8339840205462A8984
S31580203E60014C814B130B8402B28C639C6905630BD6
S31580203E70090063100C0CCA8517950700130585EA7F
S31580203E80EF40664663980B0A2C002685EF706117F3
S31580203E902A892685EF7041428547631FF90AA265E4
S31580203EA05685EFF02FC945CD0074630A8B0A832788
S31580203EB0C4FE91E7930504F95685EFF0AFC70060FD
S31580203EC0EDB7138A09F997950700938525E55285DD
S31580203ED01B0D1600EF40663B5286D2852685EF70F5
S31580203EE0A12A630295030674A6704669A669066AA6
S31580203EF0E27A427BA27B027CE26C426D2685E66476
S31580203F0065616F70613B0C6499C503B589F9EF20B3
S31580203F10763511E1D28B6308090003B589F9CA8504
S31580203F20EF20563411C1628A83B90900528C6A8681
S31580203F302DBFE28BDE852685EF70E1068547E3057A
S31580203F40F5F4F957E311F5FA0C6417950700130574
S31580203F5065DFEF4046390DBFF957E307F9F4A670C0
S31580203F600674E6644669A669066AE27A427BA27B83
S31580203F70027CE26C426D656182805D71A2E04AF8C6
S31580203F802A844EF452F056EC5AE85EE4328BAE8B9D
S31580203F90B68A3A8AC289468913068003814526FCD9
S31580203FA086E4BE84EFE0CF8223307401233464011B
S31580203FB023385401230C440123083403A308240303
S31580203FC0B1C02685EF20962F9307F01F115763EFF8
S31580203FD0A7002685EF20163C08F0515701C985E8B1
S31580203FE001451C700147AA9723800700A6600664B6
S31580203FF0E2744279A279027AE26A426BA26B3A85AE
S315802040006161828017B5080013054525E1B79305C0
S31580204010F0022685EF20363061D5058D0505D1B78E
S3158020402008716F804153011126E44AE006EC22E8AC
S31580204030AA843289EFF05FD511ED17950700130515
S31580204040E5D1EF40462A0545E2604264A2640269D2
S31580204050056182802A846304090085475CD1A28514
S315802040602685EFF05FDA2285EFF09FCD0145E9BF07
S315802040701D71A2E8AA852A84130600040A8586EC87
S31580204080A6E4EFE0EF85130600048A85014502C287
S31580204090EFC05FAB58403706FF00E6609B5687012E
S315802040A09B178701D58F9B168700F18ED58FC1668A
S315802040B01B578700938606F04664758FD98F338584
S315802040C0A740A6641335150025618280011122E858
S315802040D026E44AE006EC5C453709FF00C1641BD71D
S315802040E087011B968701598E1B9787003377270177
S315802040F0938404F09BD78700E58F598E2A84C166E6
S315802041005D8E930505040145EF10A658184CE26094
S3158020411042649B5687019B178701D58F9B16870004
S31580204120B3F626011B578700658FD58FD98F3385A8
S31580204130A740A26402691335150005618280930722
S31580204140050401459843910711E382800505DDBF6B
S31580204150797122F026EC4AE84EE406F42E84AA8968
S31580204160B2843689EFF0BFFD637AA4080A0493856A
S315802041700904B38785009043B708FF0041689B56A2
S3158020418086019B178601D58F9B168600B3F616016E
S315802041901B568600130808F033760601D58FD18FFB
S315802041A0821781934E872330F9004E940146631EF1
S315802041B0E40005050A052E95329588E0A2700274E2
S315802041C0E2644269A26945618280344311071BD328
S315802041D086019B978601B3E767001B93860033731E
S315802041E013019BD68600B3E76700B3F60601D58F09
S315802041F08D27F19B821781933E9655BF23300900E8
S31580204200014565BF854763FDB702011122E826E493
S3158020421006ECAA8417440900130444E41C4063591D
S31580204220F0000946930504012685EF20962519E599
S315802042300840E2604264A264056182806104F9BF1D
S31580204240295582801C4163D4070001458280E38FF3
S31580204250B7FE6105C5BF411122E02E84B28506E4F2
S31580204260EFF05FFE11C10069A260228502644101E0
S3158020427082802A86979507009385C5C017450900B1
S315802042801305453FC9BF2A8697950700938585C024
S3158020429017450900130585547DBF2A869795070003
S315802042A09385C5C0174509001305C5F76DB71D71E0
S315802042B05AF0067BA2E8A6E4CAE04EFC52F856F4F1
S315802042C086ECAA842330BB0013F5F60FB28A2E899A
S315802042D03A8ABE8942E44684EFF03FFC2A86A5E4EA
S315802042E097950700938505BE631659019795070014
S315802042F09385C5BC17950700130545BDEF30B67E5F
S31580204300CA85179507001305E5BEEF30D67D8D4704
S31580204310638EF40863C19704A1CC85476389F4062C
S31580204320A685179507001305E5BDEF30D67B1305C7
S31580204330A0FDE6604664A6640669E279427AA27A9E
S31580204340027B25618280AA8517950700130505B90A
S31580204350EF30767975B79547E394F4FCA26502141D
S315802043600190340852864E8522ECEFF0A51081A864
S31580204370630D590122660214019011556363C402AC
S31580204380C166CE855285EF006043014519A8340069
S315802043904E86A2855285EFF005029307A0FDE301A4
S315802043A0F5F8A267CA972330FB0061B7A26602148C
S315802043B001904E862C08528522ECEF30051AE26752
S315802043C03EE4E1BF2A8697950700938525B6174553
S315802043D00900130525D96FF01FE859719306050248
S315802043E013060002A2F0979508009385A5B92A8422
S315802043F017950700130505B586F4A6ECCAE8CEE422
S31580204400D2E056FC5AF8EF30166E979508009385C1
S3158020441065B717950700130565B4EF30D66C1C4435
S315802044203709FF00C1641BD787011B958701598DEA
S315802044301B97870033772701938404F09BD78700C7
S31580204440E58F598D5D8D02150191EF00F00F9795BF
S315802044500800938525B3179507001305A5B1EF307E
S3158020446096680345C401EFF0DFE02AEC0345D401CA
S31580204470EFF07FE12AE80345E401EFF01FE22AE42A
S315802044800345F401EFF01FF4A2666266C2652A87AF
S3158020449017950700130585AFEF30F66497950800CA
S315802044A0938545AE17950700130545AFEF30B66364
S315802044B05C441BD787011B958701598D1B978700E5
S315802044C0337727019BD78700598DE58F5D8DEF0048
S315802044D0D0041C48979508009385C5AA1795070090
S315802044E0130545AD1BD787011B968701598E1B97D0
S315802044F08700337727019BD78700598EE58F5D8E7E
S31580204500EF30765E5C48979508009385A5A717952A
S3158020451007001305A5AB1BD787011B968701598EEC
S315802045201B978700337727019BD78700598EE58F86
S315802045305D8EEF30565B8347E401114793F6D70FA4
S31580204540639AE6082285EFF09FBF2A89979508000F
S31580204550938545A3179507001305C5A8EF30B65850
S315802045608144130A8102930A0102194B9B89040014
S31580204570631C9900A6700674E6644669A669066A75
S31580204580E27A427B65618280D2865686A68522859E
S31580204590EFF01FBC4E86979508009385A59E1795AC
S315802045A00700130525A5EF3016542255EF00E07637
S315802045B08347E401639E670181CC02769795080044
S315802045C09385459C179507001305C5A3EF30B651F3
S315802045D0850469BF13070002E39EE7F858441C4808
S315802045E006749B5687011B168701558E9B1687005E
S315802045F0B3F62601558E9B9587019BD68701D58D4F
S315802046009B968700B3F626011B5787009BD787008A
S31580204610A6704669A669066AE27A427B658FE58F2F
S31580204620D58DE664518FDD8D7976399E9B8505FC07
S31580204630179507001305859E65616F30D64A2A86B1
S3158020464097950700938505A017450900130585AB27
S315802046506FF07FC0011122E826E406EC2A84B2841A
S315802046601C4063D407007D5501A8086419C9A68516
S31580204670EF20863719E50840E2604264A26405612E
S3158020468082806104F1BF2A86979507009385851DD0
S3158020469017450900130505FE75BF2A8697950700DD
S315802046A09385459B174509001305451365B72A86CB
S315802046B097950700938585B717450900130585B615
S315802046C051BF2A86979507009385C5861745090089
S315802046D0130545A941B72A8697950700938505979F
S315802046E017450900130505A2B5B7759A05E241114C
S315802046F02E85814506E4EF30965297A70A0083B728
S31580204700679188E3A26001454101828001458280CC
S315802047104111179507001305654406E4EF30D33120
S3158020472019C5A2604146814541016F30765FA260FE
S3158020473005457E05410182800111179507001305E5
S31580204740E54206EC22E826E4EF30132F09C94264BD
S31580204750E260A2644146814505616F30765C03B490
S31580204760810583B4010383B78103A29463F3970001
S31580204770BE84179507001305653EEF30F32B11C5D0
S3158020478041468145EF30D6592A8433858440E2607C
S315802047904264A26405618280411117950700130542
S315802047A0E53D06E4EF30532919C5A260414681458F
S315802047B041016F30F656A2604101BDBF6384A500DA
S315802047C06FD01F92828039714AF006FC22F826F437
S315802047D017A90A0003390984AE868335090015C5D1
S315802047E0B284300832E42A84EF30304E226609EDD6
S315802047F083350900A6862285EF30305211E5814522
S315802048002285EF30D6412AECE265E2704274A274AA
S3158020481002792E8521618280011130008A8506ECFD
S3158020482002E002E4EFF03FFAE260056182801C41FB
S315802048303706FF009BD687011B978701558F9B964E
S315802048408700F18E558FC1669BD78700938606F0A9
S31580204850F58FD98F3727052713076795638DE7004F
S31580204860411106E4EF20956EA260133515001B15C5
S315802048701500410182800545828028693335A00054
S3158020488082801971A2F8A6F4CAF0CEECD2E886FC12
S3158020489023B0060023300700AA842E84328AB68964
S315802048A03A8931C5978507009385450BEF20861B6E
S315802048B005C53C6882E482E03EFCBDE0306C97957D
S315802048C007009385A5AE2285B2E4EF40F063F957C1
S315802048D06310F50C014511AC02F802F422777DDBDA
S315802048E0C27723B0E900BA972330F900E5B72E8541
S315802048F0EFF0BFF85DFD3C64E5D303476402914742
S31580204900E31CF7FC0C60179507001305A52FEF30E5
S31580204910961D0860141830108545EFF07F837DBF83
S315802049203C70ADC32C6CB0003418268532EC2EE852
S31580204930EF30B039C265626619E994002685EF307A
S31580204940D03D11E581452685EF30762DAAE4266572
S31580204950EFF0FFED8547AA886303F504894763074F
S31580204960F514638D04169305A0032685EF20861300
S315802049706306051681450505EF30762AA6672AF84F
S315802049803EF4A9BF97970A0083B7C7688C6361BF37
S31580204990E35F05FA9307F0FBE30EF5F2B9A2A6656D
S315802049A0179507001305851EEF30F613A664370684
S315802049B0FF00178507001305E59B9C409BD6870142
S315802049C01B978701558F9B968700F18E558FC166E1
S315802049D09BD78700938606F0F58FD98F37270527B3
S315802049E013076795639CE700268503248413EFF0DD
S315802049F02FE809E91785070013054599EF70E143EC
S31580204A007955E5A02685EFF05F9D15C417850700AB
S31580204A1013054599EF7061422685EFF02FEB11E55E
S31580204A20178507001305059AD1BF1785070013053B
S31580204A30659AEF70814003C7C40195471375FA0FB5
S31580204A406311F70283C7D4016308F5000947639A87
S31580204A50E700D9476317F50003C7E4018D47630C48
S31580204A60F700EFF05F82AA85179507001305851555
S31580204A70EF30760771B7C9D4D844938704043EF4BF
S31580204A809B5687019B178701D58F3706FF009B167C
S31580204A908700F18ED58FC1661B578700938606F0D7
S31580204AA0758FD98F821781933EF80DBD1C18A66508
S31580204AB03EE43C103EE0130880078D471377FA0FBB
S31580204AC0341890002285EF40B047E34505EC2667F1
S31580204AD02320A40838F8066738FC09B517950700FF
S31580204AE013054510EF7061352955E6704674A67416
S31580204AF00679E669466A09618280797126ECAA84FC
S31580204B0017950700130585144AE84EE452E006F40B
S31580204B1022F02E89B289368AEF30037219C98145EF
S31580204B20EF30F60F2A86B1E423B0090023300A003D
S31580204B30B9A8EFF07FC62A84EFF09FBDF5D433065F
S31580204B40A40021CA814685654A85EF10061723B0C1
S31580204B50A90029E51795070013054510EF70E12D6B
S31580204B607D55A2700274E2644269A269026A456137
S31580204B708280FD57E317F5FC23B09900B387240183
S31580204B802330FA000146CA852685EF10C6090145DD
S31580204B90C9BF85654A85EF10262255BF3306A900F1
S31580204BA02330CA0083B50900179507001305050D24
S31580204BB0EF30667303B50900C1664A86A685EFF095
S31580204BC0FFBF178507001305E580EF700127C1B762
S31580204BD06F5040067571CAF806E522E1A6FCCEF430
S31580204BE0D2F0D6ECDAE8DEE4E2E066FC2A89EFF061
S31580204BF0DFC819ED0145AA600A64E6744679A6796C
S31580204C00067AE66A466BA66B066CE27C49618280F0
S31580204C10833489052685EFF09FC18947631AF50A73
S31580204C20833509052685814AEF40B01917D70A00B2
S31580204C30130747DC97D70A009387C7DB3384E7407F
S31580204C4011842A8A01240147D686179607001306DF
S31580204C50E605D2852685EF30B55C2AF441DD1C1029
S31580204C603EE43C083EE089481308000AD947694754
S31580204C70930609053010A6854A85EF40702CE34CB3
S31580204C8005F6A2752685EF30B016AA85E34505F68A
S31580204C90130671012685EF30901FE34E05F4E26BF3
S31580204CA0027C834C7101014B97D90A00938989D460
S31580204CB063148B00852A41BF83A7090063979701D8
S31580204CC083B78900E2855E858297052BC109CDB79A
S31580204CD017950700130585FEEF30E660054521BF51
S31580204CE0011122E806EC833785102A8403350510C6
S31580204CF03EE4EF30800C2C0013050410EF30C018F2
S31580204D0009E9A26799C78335041005462285EF30C5
S31580204D10C05EE260426405618280411122E0AA85FC
S31580204D202A84179507001305E5FC06E4EF30A65B79
S31580204D30131504020264A260973508009385856363
S31580204D40019141016F00A66139712C0006FCEF307C
S31580204D5016462248B2474247D2466246F2451795C2
S31580204D600700130525FAEF300658E270216182800C
S31580204D701D71A2E82A84177507001305255986EC2C
S31580204D80A6E4CAE04EFC3E8952F856F4B284368AAE
S31580204D90BA89EF30C360AA8A2285EFF05FA985475A
S31580204DA0630DF50089476304F50E179507001305F3
S31580204DB0650CEF7081087D5589A81C403706FF0059
S31580204DC017950700130585F69BD687011B978701C4
S31580204DD0558F9B968700F18E558FC1669BD787000E
S31580204DE0938606F0F58FD98F372705271307679582
S31580204DF0639AE7002285EFF0AFA70DE117950700AC
S31580204E00130545F4EF7061030545E6604664A664A4
S31580204E100669E279427AA27A25618280638B0A00CA
S31580204E202285EFF0AFAA11E517950700130585F2C5
S31580204E30D1BF0347E401994717950700130585F2EB
S31580204E40E312F7FC3C40B705FF00130704041BD68A
S31580204E5087019B968701D18E1B9687006D8ED18E7A
S31580204E6041669BD78700130606F0F18FDD8E82166A
S31580204E708192179507001305E5EFC9D61C431107C4
S31580204E80F5FF23B0E9002320D9000145BDBFFD559C
S31580204E902285EF40806811C517950700130585EE9A
S31580204EA095B7C1E063040A0283470A0085C3D28589
S31580204EB02285EF400071AA8563520504D285179515
S31580204EC007001305A5EDEF3006423DBF81452285BB
S31580204ED0EF40206FAA8563530502E3110AFE97955A
S31580204EE007009385A5ED2285EF30350CAA85635A78
S31580204EF00504179507001305E5EE29B78146178621
S31580204F0007001306264C2285EF408077AA856355B5
S31580204F100504E3060AFCD28517950700130585EA62
S31580204F205DB783C70400C5DFA6852285EF30406C38
S31580204F30AA8563530502A68517950700130585EC78
S31580204F4059B78146178607001306C6E42285EF30B7
S31580204F502564AA8471F971BF194622852EE4EF4013
S31580204F60C056A26511E5179507001305A5EB59BD17
S31580204F70638D0A0022852EE4EF408040A26511E5EC
S31580204F8017950700130585EBB5BD340810082285D3
S31580204F90EF30100D11C517950700130525EB9DB52C
S31580204FA04267E266F9BD797106F422F026EC4AE87A
S31580204FB04EE4AA8908652E89EF1056301B04050019
S31580204FC04A85EF10B62F9B04050063DC840083B7E7
S31580204FD08900B30594404A85BE95EF10B62811E125
S31580204FE0059CA27022850274E2644269A2694561A9
S31580204FF08280397106FC22F826F44AF04EEC2A8407
S315802050004841AE893289EFD0F1542800EF10602EC6
S31580205010AA840DEDA26783E78705B3D73701858BF1
S3158020502095E7630C09004840EFD0D152AA851795A1
S315802050300700130525E8EF30062B1C6885E3A2665A
S31580205040054733173701BC4ED98FBCCEE2704274E8
S315802050500279E2692685A27421618280CA852285A9
S3158020506082979B072500F59BF9DBAA84C5B76F102D
S31580205070C0201D71A2E8A6E4CAE04EFC86EC3689E3
S315802050801465040832872A84AE891796070013068A
S31580205090E6E3F9452685EF30861C2685EF10962F88
S315802050A01DC52A8634002285CE85EFD031002A84FC
S315802050B019E52265EFC05173A2672330F900E660B7
S315802050C022854664A6640669E279256182805154E8
S315802050D0FDB72D7106EE22EA26E64AE2D2F9D6F50A
S315802050E0CEFDDAF1AA8A886E2E893284B684EFC004
S315802050F03151032A85004A85EFC091501848F547DB
S3158020510063CCE71023B424011448AA890A8BD1C61C
S3158020511017960700130606DCD1450A85EF3026143C
S3158020512083B68A00930A81015A8717960700130649
S31580205130E6D99305C0035685EF3066125685EF1063
S315802051407625AA8788F05155C9C31C48886CA285C4
S315802051509CC8EF00905035E90C48B0084E85EFA0EA
S3158020516041311848137A2A00AA8721E37957631E8A
S31580205170E50285479CD4F9471CD01C401397B7027B
S31580205180634807001C48B9EF4E85EFA0B10C48D084
S31580205190886CA685EF00504D0DA8979507009385BE
S315802051A0E5D30A85EF10D604A5BF130710FA6388C6
S315802051B0E702054798D4E1D3E31F0AFA18488547C2
S315802051C06315F7008D471CD07955F2605264B2641E
S315802051D01269EE794E7AAE7A0E7B1561828013053E
S315802051E040F9D9BFE3160AFA58506346070005C32B
S315802051F0CA572955F9DB8C484E85EF30337A894753
S315802052009CD461F58D4723B424019CD451B705479E
S315802052102955E382E7FE55BF130540F97DB73971DD
S31580205220340826F43686AE84E54522F806FC2A84A0
S3158020523036E4EFC0715109CDB557A266631AF500E1
S3158020524017960700130606CAA6852285EFF07FE209
S31580205250E2704274A274216182805971CEE4AE8953
S3158020526097950700938585C8A2F0A6EC2A8486F4B4
S31580205270CAE8D2E0EFF03FD383B701041864240054
S31580205280858BA5E7BA851306D0022685EF103604CE
S3158020529097950700938505C62685EF104678228543
S315802052A0EFC091490A86A6852A89EFC091462A842D
S315802052B005C5B5576312F5022685EF10B60D2A86E9
S315802052C0515419C98A86CE854A85EFD0215E2A8493
S315802052D001E50265EFC05151A67022850674E66409
S315802052E04669A669066A65618280AA8697970700BD
S315802052F0938747BF17960700130646C0930520035A
S315802053002685EF20D67561BF597186F4A2F0A6EC6A
S31580205310CEE42A84AE89CAE8D2E0EFC0F141AA84DD
S315802053202285EFC0F141E5476312F5069795070080
S31580205330938545BD2285EFF01FC70C642A892A866E
S315802053408A862685EFC071361DC11864200017967F
S315802053500700130626BC93052003CA862285EF20E4
S3158020536016700A86A2852685EFC0B13A01E90265C4
S31580205370EFC0515A01E5826723B0F900A670067402
S31580205380E6644669A669066A656182802955FDB705
S315802053901D7186ECA2E8A6E4CAE02A84AE84EFC01A
S315802053A0B1392A892285EFC0B139D9476317F504E7
S315802053B097950700938585B32285EFF0DFBE186425
S315802053C02000AA8617960700130646B39305200366
S315802053D097970700938707B12285EF2056680A861C
S315802053E0A2854A85EFC0F13219E182679CE0E660AA
S315802053F04664A6640669256182802955CDBF597188
S315802054005AF8130B8101D2E056FC328AAE8A5A862C
S315802054108145A2F0A6ECCEE4AA8486F4CAE85EF49E
S3158020542062F0EF302618E2692954BB899940638C53
S3158020543009042A89CE852685EFD03119FD572A84FD
S315802054406310F5064E86A68517950700130585CE2B
S31580205450EF10A66219E98949130480022C0022855F
S31580205460EFD0910131C9795439A84E86A6851795F2
S315802054700700130525ABEF1046608549130480028B
S3158020548071DD130400FAA67022850674E6644669E7
S31580205490A669066AE27A427BA27B027C656182806B
S315802054A09307E0076316F5008149130420047DB72E
S315802054B0E34B05FC81495DB7A26701297D5C846B3E
S315802054C0930B0101938484FAA26713878405C1070D
S315802054D0E30BF7F8630A890183A7C408638627014B
S315802054E0A46C938484FACDB75E86E5452685EFC085
S315802054F0B12519EDC26723B0FA00FD576314F90070
